:020000040000FA
:10000000000000EB350000EB2C008FE2000C90E8C4
:1000100000A08AE000B08BE001704AE20B005AE1D8
:100020000000001A2D0000EB0F00BAE818E04FE2C4
:10003000010013E303F0471013FF2FE1D811000074
:10004000F8110000102052E27800B0287800A128B2
:10005000FBFFFF8A822EB0E13000B0283000A128DB
:1000600000409045004081451EFF2FE10030B0E385
:100070000040B0E30050B0E30060B0E3102052E273
:100080007800A128FCFFFF8A822EB0E13000A12871
:10009000003081451EFF2FE17847C0460000B0E3E5
:1000A0001EFF2FE101C08FE21CFF2FE11FB500985A
:1000B000019900F094FC00F033F9059886460FBCD6
:1000C000009C02B07047000001C08FE21CFF2FE1CE
:1000D00030B4754600F092F9AE4630BC704700006F
:1000E000FC0000EB0210A0E1EDFFFFEB1CC09FE560
:1000F0000FC08CE001001CE30DE08F120FE0A001A7
:100100001CFF2FE101C08FE21CFF2FE100F000FC7B
:10011000E00F00007847C04603002DE9E9FFFFEB40
:100120000300BDE8000300EB0C009FE50C109FE509
:1001300004209FE508309FE51EFF2FE1A801004045
:10014000A8050040A801004001C08FE21CFF2FE17C
:100150000FB4054910B503AA029800F0AFF810BC1F
:1001600008BC04B0184700009C000040F3B5040030
:10017000002081B02062E168200000F085FE0028A8
:100180007ED0252802D06268A16887E0484F00250C
:100190007F44E168200000F077FE0600202808DB9D
:1001A000312E06D2B81920380078002801D0054336
:1001B000EFE7A80701D5042085430020E061070090
:1001C000A0612A2E0AD0300000F060FE002829D05D
:1001D000303EB8000019009086611AE00298BA001B
:1001E000121902C891610290E168200000F04CFEF3
:1001F0000600012F18D1E069002821DA202085436C
:100200001EE000980A21806948430099801930381F
:100210008861E168200000F037FE060000F036FE3D
:100220000028EED1012F0BD02E2E09D1E16820003D
:1002300000F02AFE0600202005437F1C022FC0DBB1
:10024000A069002803DA4042A06101200543E807C5
:1002500001D010208543002E26D0300041381928C7
:1002600003D80120C002054320362560029A3100E0
:1002700020001500FFF710FF00280CD0012800E037
:1002800012E005D0ED1DE808C0000830029072E7CA
:100290002D1D02956FE76268A168300000F0F5FD42
:1002A000206A401C206266E7206AFEBC08BC184732
:1002B000601000007047704770470000094B70B530
:1002C0000D007B4400F015F80400280000F024F82D
:1002D000002804D00020C04370BC08BC1847200090
:1002E000FAE700004F0C000001694A1C026108781F
:1002F000704700B58FB00291002105910549019327
:1003000079440391110004906846FFF72FFF0FB066
:1003100008BC1847E5FFFFFFC06880210840704710
:1003200010B54548542100F001FB4448542100F029
:10033000FDFA4348542100F0F9FA42483E493F4B48
:10034000424A0160404803603D4810605A1C0A65FB
:10035000411C1965012101653E48374A3CA178449A
:1003600000F036FA002804D13A4878440C3800F0FE
:10037000D5FA3A48314A38A1784400F029FA0028E1
:1003800004D1364878440C3800F0C8FA34482C4A76
:1003900031A1784400F01CFA002804D13048784498
:1003A0000C3800F0BBFA40232348DC002200002177
:1003B00000F0E6F9002804D0264878445C3800F0C4
:1003C000ADFA1E4840232200002100F0D9F9002890
:1003D00004D0224878445C3800F0A0FA1848102372
:1003E0002200002100F0CCF9002804D01C487844F9
:1003F0005C3800F093FA10BC08BC1847104870B580
:10040000006D44080C48640000F05AFA0B4800F0F4
:1004100057FA0B4800F054FA09E0206D4508200017
:100420006D0000F04DFA200000F086F82C00002C42
:10043000F3D170BC08BC1847480000409C00004045
:10044000F00000403C0000404000004044000040FC
:1004500072000000A30E0000770000008D0E000067
:10046000770E00000EB56A4603C200F03DFC029014
:1004700069460120ABDF03B008BC184708B56946E0
:1004800000900220ABDF01B0F6E71FB56C4607C451
:1004900069460520ABDF04B010BC08BC18471FB587
:1004A0006C460FC469460620ABDFF4E708B5694621
:1004B00000900920ABDFE6E71CB56A4603C2694637
:1004C0000A20ABDF1CBC08BC1847704708B569465A
:1004D00000900C20ABDFD6E70E50A0E1280100EB26
:1004E00005E0A0E10050B0E10D10A0E10A30A0E16C
:1004F0000700C0E300D0A0E160D08DE220402DE9EC
:1005000008FFFFEB2040BDE80060A0E30070A0E31F
:100510000080A0E300B0A0E30710C1E305C0A0E1A4
:10052000C009ACE8C009ACE8C009ACE8C009ACE857
:1005300001D0A0E11EFF2FE170B50400051F00F0FF
:1005400029FA0068002C1AD0446801E02000646891
:10055000002C01D0AC42F9D301680A18AA4204D198
:100560002A6889180500016000E045602868411983
:10057000A14207D16168696021684018286070BC99
:1005800008BC18476C6070BC08BC1847F8B505007B
:10059000C8680C000521C904884301218905084366
:1005A000E060800602D5200000F056FB7249E0684A
:1005B0000140022903D0200000F0F4FABFE0052139
:1005C000012249030140D20391420FD1C00306D555
:1005D0006168E06A884200D80800606006E020692F
:1005E000E06260606069FFF771FFA061A1682E069C
:1005F0000022360E00290EDAE06883050BD4C943C9
:10060000A1600921226049030843E0606068411C41
:1006100061600670AEE0E068012149030843E060D4
:10062000002020602069002831D16069FFF73EFF7B
:1006300001252700ED022437002816D0A089800567
:10064000800F08D0E06900F0F9F90028206102D09D
:10065000E068284318E001202761E061E068032199
:1006600009028843012189020DE0E06900F0E6F902
:1006700000282061EFD0E0682843E0608105890F01
:1006800003D1FF2101310843E06020696060E26826
:100690003A4F2569D00521D56168E06A884200D8C3
:1006A0000800411B05D02200280000F085FA002830
:1006B00045D1E068010204D5E56200206560A060D4
:1006C00055E0691CE1626160E1693843491EA1603F
:1006D000E06030002E70F8BC08BC1847100201D54D
:1006E0003A4009E06068411C61600670E068384388
:1006F0000A2EE06006D00022E16A6068814203D9D8
:100700000B0002E00122F7E70300A7895B1B7F05CE
:1007100004D4E7699F4201DD002A1ED0814200D83F
:1007200001000F1A0020E5626560002BA06009DD62
:1007300022001900280000F03FFA002802D0002013
:10074000C043C8E7002F08D0A069E5626560C01B00
:10075000A061E06810210843E060E068000209D56C
:100760006168A069E562491B40186560A0610120CD
:10077000C043B0E73000AEE7821000000000010087
:1007800070B4C468A50713D0650211D4D51FF93D14
:100790000AD0FF3D013D07D0FF3DFF3D023D07D19F
:1007A00001002431012306E0084E5D1EB54202D34C
:1007B000012070BC70470161C36141600F210902D3
:1007C0008C431443C4600020F3E70000FFFFFF00E8
:1007D000F7B516000C00100000F072F82078611CCC
:1007E00061280AD0722802D077283BD102E0012587
:1007F000002404E00225042401E02F4D08240222F5
:10080000032301270878491C2B2806D0622807D02B
:100810002039C87F742807D008E01D431443F1E74E
:10082000042005433C43EDE71020044300982100D9
:10083000FFF718FE411C15D00021316171600121C4
:10084000F5604902F1617061200704D502220021A0
:10085000300000F02BF9306D384330653000FEBCBD
:1008600008BC18470020FAE7F8B50D00134C060045
:10087000206DC10704D0410804D044086400F7E7A4
:10088000220010E0542000F0D9F8070012D07908B7
:10089000206D49000122114308432065542138008E
:1008A00000F044F83A0029003000FFF791FFF8BC4F
:1008B00008BC18470020FAE702800000480000400A
:1008C000FEB504001030114F41C80190E5680020CA
:1008D0000090A80707D0200000F096F93000FFF73D
:1008E000CDFD002803DA3800FEBC08BC18472805F7
:1008F00002D50198FFF720FE4C21200000F016F8E9
:10090000206D4008400020650098EDE7FFFFFFFFE5
:100910000400C046C0462000FFF7FCFB10B500F005
:10092000C7F900F0BDF910BC08BC18477847C046AD
:100930000020A0E300402DE90230A0E102C0A0E1C8
:1009400002E0A0E1201051E20C50A0280C50A02899
:1009500020105122FBFFFF2A011EB0E10C50A028FD
:100960000C00A0480040BDE80111B0E10420802443
:100970001EFF2F01B220C040010111E30120C0146D
:100980001EFF2FE100009FE51EFF2FE14401004004
:100990001EFF2FE17847C04600009FE51EFF2FE1B4
:1009A0004C010040704770477047704738B50400ED
:1009B0000A0069460020C046C046002805D0020053
:1009C0000099200000F0C3F9012038BC08BC18478A
:1009D00010B5012000F016FA10BC08BC1847F8B595
:1009E000C046C04605000C0000201020C04606008E
:1009F000A819A0420DD9694632000020C046C04661
:100A0000070001D100F0FEF90098A04200D00500D7
:100A1000C419FFF7BFFFF61D07000560F008C0000E
:100A20004619280000F08CF9B44204D03868A21BA3
:100A3000310000F08CF9F8BC08BC184770B506000E
:100A4000FFF7A8FF056830000B30C408E400B4428B
:100A500003D870BC002008BC184768682A0000282A
:100A60001AD00168A14213D30B00210008318B4238
:100A700008D3436801194B6003681B1B0B6051606E
:100A8000046001E04168516070BC001D08BC18475B
:100A9000020040680028E4D121002800FFF786FF0B
:100AA0000028DAD170BC08BC18470000F8B5040073
:100AB0004769007B16000D00800732D03800FFF731
:100AC000F5FC00282DD132001026002A27D0012A5B
:100AD00002D0022A25D104E0200000F054F9451983
:100AE0001DE03800FFF7F2FCE16831430028E160C7
:100AF00006DA200000F056F80120F8BC08BC1847C0
:100B0000C9030BD56268E16A914200D81100A2695D
:100B100089182269891A814200DD08002D18002DEC
:100B200001DA0220E9E7E16A6068E268814206D200
:100B30009103E06203D5012149048A433243A66947
:100B4000AE4211DCE16A814201D90B0000E00300F2
:100B50009F192369FF1AAF4206DD814201D90F00B8
:100B600000E007009F4206D1202002430020A06041
:100B7000A56220600DE0AD1BE669AE1B8142A66058
:100B800000D90800C01A281A206058196060202077
:100B90008243034802400020E26040342072ACE708
:100BA000BFCFD7FFC1688022114392039143C16038
:100BB0000021816001607047F7B514000E003648CF
:100BC000D5685769054209D0A1693800FFF774FC60
:100BD000002811DB3048C0430540E56000992B0038
:100BE00032003800FFF751FC4200A1695208B21AE6
:100BF00089180028A16104D02000FFF7D3FF00204E
:100C0000C043FEBC08BC184770B504000569C06A43
:100C10006168884200D80800E1680522D204914347
:100C2000E160C90316D5A8420BD0411B2200280061
:100C3000FFF7C2FF002804D00020C04370BC08BCEE
:100C40001847E56200206560A060E06801210904A2
:100C50008843E0600020F1E710B50400C06820215F
:100C60008843E060A16AA06988420ED02000FFF7A7
:100C7000CBFFE06803210903884310210843E060AB
:100C8000A06AA0612069E06260600449E0680840F1
:100C9000E06010BC08BC184710000200BFBFFFFF97
:100CA00010B5002801D000F045F810BC08BC18476A
:100CB000010010B503A000F089F810BC012008BCA9
:100CC0001847000053494752545245443A20526550
:100CD0006469726563743A2063616E2774206F7073
:100CE000656E3A200000000030B4441C03E0017837
:100CF000401C00290ED08107F9D10B4BDD0104C83F
:100D0000D11A91432940FAD0001B0A0604D0C01E14
:100D100030BC7047001BFBE70A0401D0801EF7E7D8
:100D20000902F5D0401EF3E70101010101C08FE285
:100D30001CFF2FE101491820ABDFFEE7260002006F
:100D4000002101604160806070471020704710B53D
:100D50000300406801E003004068002801D0884299
:100D6000F9D31868C3188B4206D0CB1CD808C00032
:100D7000001D411A521A0100081D0A60FFF7DCFB32
:100D800010BC08BC184710B5C2680100900703D01A
:100D9000900609D5886A0CE000F044F80121016052
:100DA000881E10BC08BC18478B694868C0180B69BE
:100DB000C01A40310B7A002B02D0497A401AF0E772
:100DC0001103EED50028ECDD401EEAE770B50C00FB
:100DD00005000A2000E06D1C00F01CF8002D06D074
:100DE00028780028F7D102E0641C00F013F8002CEA
:100DF00002D020780028F7D10A2000F00BF870BC50
:100E000008BC184710B500F015F8FFF749FF10BCF3
:100E100008BC184708B5694608700320ABDF01B06D
:100E200008BC18477847C04600009FE51EFF2FE129
:100E30004401004010B5012807D0002104A0FFF7AD
:100E4000C5FF10BC012008BC184709A1F6E7000047
:100E500053494752544D454D3A204F7574206F66A3
:100E60002068656170206D656D6F7279000000000B
:100E70003A2048656170206D656D6F727920636FEF
:100E800072727570746564000847104730380A281C
:100E900001D2012070470020704700000010A0E33D
:100EA000060000EA0020A0E3000000EA012082E240
:100EB00014309FE5030052E1FBFFFFBA011081E20D
:100EC000000051E1F6FFFF3A1EFF2FE1B80B0000D2
:100ED0000000A0E3D00F00E5F40F10E50101C0E32E
:100EE0000010A0E3F40F01E50101A0E3F00F01E51C
:100EF0002100A0E3FC0D01E510009FE5FC0E01E5DB
:100F000000000FE18000C0E300F021E11EFF2FE1AF
:100F10006C11000010B58A68002A04DCFFF736FB6C
:100F200010BC08BC1847521E8A604A680006000EB2
:100F3000531C4B601070F3E77C402DE90000A0E3E8
:100F400000008DE504008DE54B4FA0E3015AA0E3BE
:100F5000420F8FE27BFCFFEB120E8FE279FCFFEB7E
:100F600024019FE50000D0E50000CDE50000A0E3EE
:100F70000400CDE50300CDE50200CDE58000A0E34F
:100F800008119FE50C0081E50D00A0E1590000EB80
:100F90000000A0E1790000EBF4109FE50000C1E53E
:100FA000000081E20000D0E5FE0050E30200000AEC
:100FB000010044E20040B0E1F5FFFF1A000054E3F5
:100FC0000300001ACC008FE25EFCFFEB0000A0E102
:100FD000FEFFFFEACC008FE25AFCFFEBFA0FA0E322
:100FE000ADFFFFEB0000A0E3C8109FE5000081E526
:100FF0000D0000EA610000EB94109FE50000C1E5E0
:10100000000081E20000D0E5A8109FE5001091E506
:10101000021A81E20000C1E598009FE5000090E51A
:10102000010080E28C109FE5000081E584009FE5CF
:10103000000090E5050050E1EDFFFF3A4F0000EBA6
:101040004E0000EB8000A0E340109FE5040081E526
:1010500064008FE23BFCFFEB7C40BDE81EFF2FE10C
:101060000A0A4C6F6164696E67204B65726E656C2D
:101070002066726F6D20534420636172640A000021
:101080002D2D434D4431372D2D0A00001E00004008
:10109000008002E03600004052656164204641490C
:1010A0004C45440A0000000053746172742072655C
:1010B0006164696E670A0000380000404B65726E1B
:1010C000656C204C6F616465642053554343455300
:1010D0005346554C4C590A00024AA0E37BFFFFEBF4
:1010E00094FFFFEB3E0000EB0FE0A0E114FF2FE1C7
:1010F0000000A0E1FEFFFFEA10402DE90040A0E162
:101100001E0000EB0000A0E354109FE5000081E505
:10111000080000EA48109FE5001091E50100D4E7BF
:10112000230000EB38009FE5000090E5010080E21D
:101130002C109FE5000081E524009FE5000090E56C
:10114000060050E3F2FFFF3A0C0000EB14109FE59D
:101150000000C1E5000081E20000D0E51040BDE8DC
:101160001EFF2FE1380000403600004003002DE94B
:101170000000A0E3D00F00E50300BDE804F05EE24C
:10118000FF10A0E324209FE5B810C2E10000A0E119
:1011900018109FE50410D1E5800011E3FBFFFF0A62
:1011A00008109FE5B810D1E1FF0001E21EFF2FE11A
:1011B000000002E024109FE5B800C1E10000A0E1BA
:1011C00018109FE50410D1E5800011E3FBFFFF0A32
:1011D00008109FE5B810D1E1FF0001E21EFF2FE1EA
:1011E000000002E000000FE10F00C0E300F02FE17B
:1011F0001EFF2FE1040000080000000000000002B4
:1012000000010000103A7474003A7474003A747467
:101210000000000034120000000000404800000000
:10122000440000007C12000048000040E805000077
:101230006C0000004000000000954100000000FF2D
:1012400048000001AA874900000000004A00000091
:10125000000051000000000058000000000069403C
:10126000000000FF7700000000FF00000000000009
:0C12700000000000000000000000000072
:0400000500000000F7
:00000001FF
