:020000040000FA
:10000000000000EB240000EB2C008FE2000C90E8D5
:1000100000A08AE000B08BE001704AE20B005AE1D8
:100020000000001A1C0000EB0F00BAE818E04FE2D5
:10003000010013E303F0471013FF2FE1D801000084
:10004000E80100000030B0E30040B0E30050B0E34E
:100050000060B0E3102052E27800A128FCFFFF8A84
:10006000822EB0E13000A128003081451EFF2FE133
:1000700001C08FE21CFF2FE11FB5059886460FBC1B
:10008000009C02B07047000001C08FE21CFF2FE10E
:1000900030B47546AE4630BC704700001D0000EB22
:1000A0000210A0E1F1FFFFEB1CC09FE50FC08CE048
:1000B00001001CE30DE08F120FE0A0011CFF2FE1F7
:1000C00001C08FE21CFF2FE100F056F82C01000068
:1000D0007847C04603002DE9EAFFFFEB0300BDE8C7
:1000E000280000EB0C009FE50C109FE504209FE525
:1000F00008309FE51EFF2FE16000004060040040D3
:1001000060000040704770477047000000009FE5A6
:100110001EFF2FE1000000400E50A0E1FAFFFFEBB0
:1001200005E0A0E10050B0E10D10A0E10A30A0E12F
:100130000700C0E300D0A0E160D08DE220402DE9AF
:10014000E7FFFFEB2040BDE80060A0E30070A0E304
:100150000080A0E300B0A0E30710C1E305C0A0E168
:10016000C009ACE8C009ACE8C009ACE8C009ACE81B
:1001700001D0A0E11EFF2FE10400C046C0462000D0
:10018000FFF7A6FF1EFF2FE101C08FE21CFF2FE14A
:1001900001491820ABDFFEE7260002000000A0E3C3
:1001A000D00F00E5F40F10E50101C0E30010A0E35B
:1001B000F40F01E50101A0E3F00F01E52100A0E348
:1001C000FC0D01E510009FE5FC0E01E500000FE1CC
:1001D0008000C0E300F021E11EFF2FE1F0010000EC
:1001E000EDFFFFEB060000EB0000A0E1FEFFFFEAE1
:1001F00003002DE90000A0E3D00F00E50300BDE8F7
:1002000004F05EE200000FE10F00C0E300F02FE118
:100210001EFF2FE12402000000000040E80400005F
:040220004400000096
:0400000500000000F7
:00000001FF
